{"abi":[{"type":"constructor","inputs":[],"stateMutability":"nonpayable"},{"type":"receive","stateMutability":"payable"},{"type":"function","name":"accumulatedFees","inputs":[],"outputs":[{"name":"","type":"uint256","internalType":"uint256"}],"stateMutability":"view"},{"type":"function","name":"botIdToWallet","inputs":[{"name":"","type":"string","internalType":"string"}],"outputs":[{"name":"","type":"address","internalType":"address"}],"stateMutability":"view"},{"type":"function","name":"botWallets","inputs":[{"name":"","type":"address","internalType":"address"}],"outputs":[{"name":"botId","type":"string","internalType":"string"},{"name":"optionId","type":"uint8","internalType":"uint8"},{"name":"isActive","type":"bool","internalType":"bool"}],"stateMutability":"view"},{"type":"function","name":"calculatePotentialWinnings","inputs":[{"name":"_predictionId","type":"uint256","internalType":"uint256"},{"name":"_optionId","type":"uint8","internalType":"uint8"},{"name":"_amount","type":"uint256","internalType":"uint256"}],"outputs":[{"name":"","type":"uint256","internalType":"uint256"}],"stateMutability":"view"},{"type":"function","name":"canBet","inputs":[{"name":"_user","type":"address","internalType":"address"},{"name":"_predictionId","type":"uint256","internalType":"uint256"}],"outputs":[{"name":"","type":"bool","internalType":"bool"}],"stateMutability":"view"},{"type":"function","name":"canBetDetailed","inputs":[{"name":"_user","type":"address","internalType":"address"},{"name":"_predictionId","type":"uint256","internalType":"uint256"}],"outputs":[{"name":"canBetResult","type":"bool","internalType":"bool"},{"name":"reason","type":"string","internalType":"string"}],"stateMutability":"view"},{"type":"function","name":"canBotBetOnOption","inputs":[{"name":"_bot","type":"address","internalType":"address"},{"name":"_predictionId","type":"uint256","internalType":"uint256"},{"name":"_optionId","type":"uint8","internalType":"uint8"}],"outputs":[{"name":"canBetResult","type":"bool","internalType":"bool"},{"name":"reason","type":"string","internalType":"string"}],"stateMutability":"view"},{"type":"function","name":"cancelPrediction","inputs":[{"name":"_predictionId","type":"uint256","internalType":"uint256"}],"outputs":[],"stateMutability":"nonpayable"},{"type":"function","name":"claimRefund","inputs":[{"name":"_predictionId","type":"uint256","internalType":"uint256"}],"outputs":[],"stateMutability":"nonpayable"},{"type":"function","name":"claimWinnings","inputs":[{"name":"_predictionId","type":"uint256","internalType":"uint256"}],"outputs":[],"stateMutability":"nonpayable"},{"type":"function","name":"createPrediction","inputs":[{"name":"_tokenAddress","type":"address","internalType":"address"},{"name":"_question","type":"string","internalType":"string"},{"name":"_type","type":"uint8","internalType":"enum CouncilPredictions.PredictionType"},{"name":"_duration","type":"uint256","internalType":"uint256"},{"name":"_optionLabels","type":"string[]","internalType":"string[]"}],"outputs":[{"name":"","type":"uint256","internalType":"uint256"}],"stateMutability":"payable"},{"type":"function","name":"getActivePredictions","inputs":[{"name":"_offset","type":"uint256","internalType":"uint256"},{"name":"_limit","type":"uint256","internalType":"uint256"}],"outputs":[{"name":"results","type":"tuple[]","internalType":"struct CouncilPredictions.PredictionView[]","components":[{"name":"id","type":"uint256","internalType":"uint256"},{"name":"tokenAddress","type":"address","internalType":"address"},{"name":"question","type":"string","internalType":"string"},{"name":"predictionType","type":"uint8","internalType":"enum CouncilPredictions.PredictionType"},{"name":"endTime","type":"uint256","internalType":"uint256"},{"name":"resolveTime","type":"uint256","internalType":"uint256"},{"name":"prizePool","type":"uint256","internalType":"uint256"},{"name":"totalBets","type":"uint256","internalType":"uint256"},{"name":"numOptions","type":"uint8","internalType":"uint8"},{"name":"winningOption","type":"uint8","internalType":"uint8"},{"name":"resolved","type":"bool","internalType":"bool"},{"name":"cancelled","type":"bool","internalType":"bool"},{"name":"isTie","type":"bool","internalType":"bool"},{"name":"creator","type":"address","internalType":"address"},{"name":"createdAt","type":"uint256","internalType":"uint256"},{"name":"options","type":"tuple[]","internalType":"struct CouncilPredictions.Option[]","components":[{"name":"label","type":"string","internalType":"string"},{"name":"totalStaked","type":"uint256","internalType":"uint256"},{"name":"numBettors","type":"uint256","internalType":"uint256"}]}]},{"name":"total","type":"uint256","internalType":"uint256"}],"stateMutability":"view"},{"type":"function","name":"getAllOdds","inputs":[{"name":"_predictionId","type":"uint256","internalType":"uint256"}],"outputs":[{"name":"","type":"uint256[]","internalType":"uint256[]"}],"stateMutability":"view"},{"type":"function","name":"getAllOptions","inputs":[{"name":"_predictionId","type":"uint256","internalType":"uint256"}],"outputs":[{"name":"","type":"tuple[]","internalType":"struct CouncilPredictions.Option[]","components":[{"name":"label","type":"string","internalType":"string"},{"name":"totalStaked","type":"uint256","internalType":"uint256"},{"name":"numBettors","type":"uint256","internalType":"uint256"}]}],"stateMutability":"view"},{"type":"function","name":"getBotInfo","inputs":[{"name":"_wallet","type":"address","internalType":"address"}],"outputs":[{"name":"","type":"tuple","internalType":"struct CouncilPredictions.BotInfo","components":[{"name":"botId","type":"string","internalType":"string"},{"name":"optionId","type":"uint8","internalType":"uint8"},{"name":"isActive","type":"bool","internalType":"bool"}]}],"stateMutability":"view"},{"type":"function","name":"getBotOptionId","inputs":[{"name":"_wallet","type":"address","internalType":"address"}],"outputs":[{"name":"","type":"uint8","internalType":"uint8"}],"stateMutability":"view"},{"type":"function","name":"getClaimablePredictions","inputs":[{"name":"_user","type":"address","internalType":"address"}],"outputs":[{"name":"","type":"uint256[]","internalType":"uint256[]"}],"stateMutability":"view"},{"type":"function","name":"getGlobalStats","inputs":[],"outputs":[{"name":"totalPredictions","type":"uint256","internalType":"uint256"},{"name":"totalVolume","type":"uint256","internalType":"uint256"},{"name":"totalFees","type":"uint256","internalType":"uint256"},{"name":"activePredictionCount","type":"uint256","internalType":"uint256"}],"stateMutability":"view"},{"type":"function","name":"getLatestPredictions","inputs":[{"name":"_count","type":"uint256","internalType":"uint256"}],"outputs":[{"name":"","type":"tuple[]","internalType":"struct CouncilPredictions.PredictionView[]","components":[{"name":"id","type":"uint256","internalType":"uint256"},{"name":"tokenAddress","type":"address","internalType":"address"},{"name":"question","type":"string","internalType":"string"},{"name":"predictionType","type":"uint8","internalType":"enum CouncilPredictions.PredictionType"},{"name":"endTime","type":"uint256","internalType":"uint256"},{"name":"resolveTime","type":"uint256","internalType":"uint256"},{"name":"prizePool","type":"uint256","internalType":"uint256"},{"name":"totalBets","type":"uint256","internalType":"uint256"},{"name":"numOptions","type":"uint8","internalType":"uint8"},{"name":"winningOption","type":"uint8","internalType":"uint8"},{"name":"resolved","type":"bool","internalType":"bool"},{"name":"cancelled","type":"bool","internalType":"bool"},{"name":"isTie","type":"bool","internalType":"bool"},{"name":"creator","type":"address","internalType":"address"},{"name":"createdAt","type":"uint256","internalType":"uint256"},{"name":"options","type":"tuple[]","internalType":"struct CouncilPredictions.Option[]","components":[{"name":"label","type":"string","internalType":"string"},{"name":"totalStaked","type":"uint256","internalType":"uint256"},{"name":"numBettors","type":"uint256","internalType":"uint256"}]}]}],"stateMutability":"view"},{"type":"function","name":"getOdds","inputs":[{"name":"_predictionId","type":"uint256","internalType":"uint256"},{"name":"_optionId","type":"uint8","internalType":"uint8"}],"outputs":[{"name":"","type":"uint256","internalType":"uint256"}],"stateMutability":"view"},{"type":"function","name":"getOption","inputs":[{"name":"_predictionId","type":"uint256","internalType":"uint256"},{"name":"_optionId","type":"uint8","internalType":"uint8"}],"outputs":[{"name":"","type":"tuple","internalType":"struct CouncilPredictions.Option","components":[{"name":"label","type":"string","internalType":"string"},{"name":"totalStaked","type":"uint256","internalType":"uint256"},{"name":"numBettors","type":"uint256","internalType":"uint256"}]}],"stateMutability":"view"},{"type":"function","name":"getPrediction","inputs":[{"name":"_predictionId","type":"uint256","internalType":"uint256"}],"outputs":[{"name":"prediction","type":"tuple","internalType":"struct CouncilPredictions.Prediction","components":[{"name":"id","type":"uint256","internalType":"uint256"},{"name":"tokenAddress","type":"address","internalType":"address"},{"name":"question","type":"string","internalType":"string"},{"name":"predictionType","type":"uint8","internalType":"enum CouncilPredictions.PredictionType"},{"name":"endTime","type":"uint256","internalType":"uint256"},{"name":"resolveTime","type":"uint256","internalType":"uint256"},{"name":"prizePool","type":"uint256","internalType":"uint256"},{"name":"totalBets","type":"uint256","internalType":"uint256"},{"name":"numOptions","type":"uint8","internalType":"uint8"},{"name":"winningOption","type":"uint8","internalType":"uint8"},{"name":"resolved","type":"bool","internalType":"bool"},{"name":"cancelled","type":"bool","internalType":"bool"},{"name":"isTie","type":"bool","internalType":"bool"},{"name":"creator","type":"address","internalType":"address"}]},{"name":"opts","type":"tuple[]","internalType":"struct CouncilPredictions.Option[]","components":[{"name":"label","type":"string","internalType":"string"},{"name":"totalStaked","type":"uint256","internalType":"uint256"},{"name":"numBettors","type":"uint256","internalType":"uint256"}]}],"stateMutability":"view"},{"type":"function","name":"getPredictionBettorCount","inputs":[{"name":"_predictionId","type":"uint256","internalType":"uint256"}],"outputs":[{"name":"","type":"uint256","internalType":"uint256"}],"stateMutability":"view"},{"type":"function","name":"getPredictionBettors","inputs":[{"name":"_predictionId","type":"uint256","internalType":"uint256"}],"outputs":[{"name":"","type":"address[]","internalType":"address[]"}],"stateMutability":"view"},{"type":"function","name":"getPredictionFull","inputs":[{"name":"_predictionId","type":"uint256","internalType":"uint256"}],"outputs":[{"name":"","type":"tuple","internalType":"struct CouncilPredictions.PredictionView","components":[{"name":"id","type":"uint256","internalType":"uint256"},{"name":"tokenAddress","type":"address","internalType":"address"},{"name":"question","type":"string","internalType":"string"},{"name":"predictionType","type":"uint8","internalType":"enum CouncilPredictions.PredictionType"},{"name":"endTime","type":"uint256","internalType":"uint256"},{"name":"resolveTime","type":"uint256","internalType":"uint256"},{"name":"prizePool","type":"uint256","internalType":"uint256"},{"name":"totalBets","type":"uint256","internalType":"uint256"},{"name":"numOptions","type":"uint8","internalType":"uint8"},{"name":"winningOption","type":"uint8","internalType":"uint8"},{"name":"resolved","type":"bool","internalType":"bool"},{"name":"cancelled","type":"bool","internalType":"bool"},{"name":"isTie","type":"bool","internalType":"bool"},{"name":"creator","type":"address","internalType":"address"},{"name":"createdAt","type":"uint256","internalType":"uint256"},{"name":"options","type":"tuple[]","internalType":"struct CouncilPredictions.Option[]","components":[{"name":"label","type":"string","internalType":"string"},{"name":"totalStaked","type":"uint256","internalType":"uint256"},{"name":"numBettors","type":"uint256","internalType":"uint256"}]}]}],"stateMutability":"view"},{"type":"function","name":"getRegisteredBots","inputs":[],"outputs":[{"name":"","type":"address[]","internalType":"address[]"}],"stateMutability":"view"},{"type":"function","name":"getTiedWinningOptions","inputs":[{"name":"_predictionId","type":"uint256","internalType":"uint256"}],"outputs":[{"name":"","type":"uint8[]","internalType":"uint8[]"}],"stateMutability":"view"},{"type":"function","name":"getUserBet","inputs":[{"name":"_user","type":"address","internalType":"address"},{"name":"_predictionId","type":"uint256","internalType":"uint256"}],"outputs":[{"name":"","type":"tuple","internalType":"struct CouncilPredictions.Bet","components":[{"name":"predictionId","type":"uint256","internalType":"uint256"},{"name":"optionId","type":"uint8","internalType":"uint8"},{"name":"amount","type":"uint256","internalType":"uint256"},{"name":"claimed","type":"bool","internalType":"bool"},{"name":"timestamp","type":"uint256","internalType":"uint256"}]}],"stateMutability":"view"},{"type":"function","name":"getUserBets","inputs":[{"name":"_user","type":"address","internalType":"address"}],"outputs":[{"name":"bets","type":"tuple[]","internalType":"struct CouncilPredictions.Bet[]","components":[{"name":"predictionId","type":"uint256","internalType":"uint256"},{"name":"optionId","type":"uint8","internalType":"uint8"},{"name":"amount","type":"uint256","internalType":"uint256"},{"name":"claimed","type":"bool","internalType":"bool"},{"name":"timestamp","type":"uint256","internalType":"uint256"}]},{"name":"predictionIds","type":"uint256[]","internalType":"uint256[]"}],"stateMutability":"view"},{"type":"function","name":"getUserStats","inputs":[{"name":"_user","type":"address","internalType":"address"}],"outputs":[{"name":"","type":"tuple","internalType":"struct CouncilPredictions.UserStats","components":[{"name":"totalBets","type":"uint256","internalType":"uint256"},{"name":"totalStaked","type":"uint256","internalType":"uint256"},{"name":"totalWon","type":"uint256","internalType":"uint256"},{"name":"totalLost","type":"uint256","internalType":"uint256"},{"name":"activeBets","type":"uint256","internalType":"uint256"},{"name":"claimableBets","type":"uint256","internalType":"uint256"}]}],"stateMutability":"view"},{"type":"function","name":"hasBet","inputs":[{"name":"","type":"uint256","internalType":"uint256"},{"name":"","type":"address","internalType":"address"}],"outputs":[{"name":"","type":"bool","internalType":"bool"}],"stateMutability":"view"},{"type":"function","name":"isBot","inputs":[{"name":"_wallet","type":"address","internalType":"address"}],"outputs":[{"name":"","type":"bool","internalType":"bool"}],"stateMutability":"view"},{"type":"function","name":"maxBetAmount","inputs":[],"outputs":[{"name":"","type":"uint256","internalType":"uint256"}],"stateMutability":"view"},{"type":"function","name":"minBetAmount","inputs":[],"outputs":[{"name":"","type":"uint256","internalType":"uint256"}],"stateMutability":"view"},{"type":"function","name":"minTokenHolding","inputs":[],"outputs":[{"name":"","type":"uint256","internalType":"uint256"}],"stateMutability":"view"},{"type":"function","name":"options","inputs":[{"name":"","type":"uint256","internalType":"uint256"},{"name":"","type":"uint8","internalType":"uint8"}],"outputs":[{"name":"label","type":"string","internalType":"string"},{"name":"totalStaked","type":"uint256","internalType":"uint256"},{"name":"numBettors","type":"uint256","internalType":"uint256"}],"stateMutability":"view"},{"type":"function","name":"oracles","inputs":[{"name":"","type":"address","internalType":"address"}],"outputs":[{"name":"","type":"bool","internalType":"bool"}],"stateMutability":"view"},{"type":"function","name":"owner","inputs":[],"outputs":[{"name":"","type":"address","internalType":"address"}],"stateMutability":"view"},{"type":"function","name":"placeBet","inputs":[{"name":"_predictionId","type":"uint256","internalType":"uint256"},{"name":"_optionId","type":"uint8","internalType":"uint8"}],"outputs":[],"stateMutability":"payable"},{"type":"function","name":"platformFee","inputs":[],"outputs":[{"name":"","type":"uint256","internalType":"uint256"}],"stateMutability":"view"},{"type":"function","name":"predictionBettors","inputs":[{"name":"","type":"uint256","internalType":"uint256"},{"name":"","type":"uint256","internalType":"uint256"}],"outputs":[{"name":"","type":"address","internalType":"address"}],"stateMutability":"view"},{"type":"function","name":"predictionCount","inputs":[],"outputs":[{"name":"","type":"uint256","internalType":"uint256"}],"stateMutability":"view"},{"type":"function","name":"predictionCreatedAt","inputs":[{"name":"","type":"uint256","internalType":"uint256"}],"outputs":[{"name":"","type":"uint256","internalType":"uint256"}],"stateMutability":"view"},{"type":"function","name":"predictions","inputs":[{"name":"","type":"uint256","internalType":"uint256"}],"outputs":[{"name":"id","type":"uint256","internalType":"uint256"},{"name":"tokenAddress","type":"address","internalType":"address"},{"name":"question","type":"string","internalType":"string"},{"name":"predictionType","type":"uint8","internalType":"enum CouncilPredictions.PredictionType"},{"name":"endTime","type":"uint256","internalType":"uint256"},{"name":"resolveTime","type":"uint256","internalType":"uint256"},{"name":"prizePool","type":"uint256","internalType":"uint256"},{"name":"totalBets","type":"uint256","internalType":"uint256"},{"name":"numOptions","type":"uint8","internalType":"uint8"},{"name":"winningOption","type":"uint8","internalType":"uint8"},{"name":"resolved","type":"bool","internalType":"bool"},{"name":"cancelled","type":"bool","internalType":"bool"},{"name":"isTie","type":"bool","internalType":"bool"},{"name":"creator","type":"address","internalType":"address"}],"stateMutability":"view"},{"type":"function","name":"registerBot","inputs":[{"name":"_wallet","type":"address","internalType":"address"},{"name":"_botId","type":"string","internalType":"string"},{"name":"_optionId","type":"uint8","internalType":"uint8"}],"outputs":[],"stateMutability":"nonpayable"},{"type":"function","name":"registeredBots","inputs":[{"name":"","type":"uint256","internalType":"uint256"}],"outputs":[{"name":"","type":"address","internalType":"address"}],"stateMutability":"view"},{"type":"function","name":"renounceOwnership","inputs":[],"outputs":[],"stateMutability":"nonpayable"},{"type":"function","name":"resolvePrediction","inputs":[{"name":"_predictionId","type":"uint256","internalType":"uint256"},{"name":"_winningOption","type":"uint8","internalType":"uint8"}],"outputs":[],"stateMutability":"nonpayable"},{"type":"function","name":"resolvePrediction","inputs":[{"name":"_predictionId","type":"uint256","internalType":"uint256"},{"name":"_winningOption","type":"uint8","internalType":"uint8"},{"name":"_isTie","type":"bool","internalType":"bool"},{"name":"_tiedOptions","type":"uint8[]","internalType":"uint8[]"}],"outputs":[],"stateMutability":"nonpayable"},{"type":"function","name":"seedPrediction","inputs":[{"name":"_predictionId","type":"uint256","internalType":"uint256"},{"name":"_optionId","type":"uint8","internalType":"uint8"}],"outputs":[],"stateMutability":"payable"},{"type":"function","name":"setMaxBetAmount","inputs":[{"name":"_amount","type":"uint256","internalType":"uint256"}],"outputs":[],"stateMutability":"nonpayable"},{"type":"function","name":"setMinBetAmount","inputs":[{"name":"_amount","type":"uint256","internalType":"uint256"}],"outputs":[],"stateMutability":"nonpayable"},{"type":"function","name":"setMinTokenHolding","inputs":[{"name":"_amount","type":"uint256","internalType":"uint256"}],"outputs":[],"stateMutability":"nonpayable"},{"type":"function","name":"setOracle","inputs":[{"name":"_oracle","type":"address","internalType":"address"},{"name":"_status","type":"bool","internalType":"bool"}],"outputs":[],"stateMutability":"nonpayable"},{"type":"function","name":"setPlatformFee","inputs":[{"name":"_fee","type":"uint256","internalType":"uint256"}],"outputs":[],"stateMutability":"nonpayable"},{"type":"function","name":"tiedWinningOptions","inputs":[{"name":"","type":"uint256","internalType":"uint256"},{"name":"","type":"uint256","internalType":"uint256"}],"outputs":[{"name":"","type":"uint8","internalType":"uint8"}],"stateMutability":"view"},{"type":"function","name":"totalVolumeAllTime","inputs":[],"outputs":[{"name":"","type":"uint256","internalType":"uint256"}],"stateMutability":"view"},{"type":"function","name":"transferOwnership","inputs":[{"name":"newOwner","type":"address","internalType":"address"}],"outputs":[],"stateMutability":"nonpayable"},{"type":"function","name":"unregisterBot","inputs":[{"name":"_wallet","type":"address","internalType":"address"}],"outputs":[],"stateMutability":"nonpayable"},{"type":"function","name":"userBets","inputs":[{"name":"","type":"address","internalType":"address"},{"name":"","type":"uint256","internalType":"uint256"}],"outputs":[{"name":"predictionId","type":"uint256","internalType":"uint256"},{"name":"optionId","type":"uint8","internalType":"uint8"},{"name":"amount","type":"uint256","internalType":"uint256"},{"name":"claimed","type":"bool","internalType":"bool"},{"name":"timestamp","type":"uint256","internalType":"uint256"}],"stateMutability":"view"},{"type":"function","name":"userPredictionIds","inputs":[{"name":"","type":"address","internalType":"address"},{"name":"","type":"uint256","internalType":"uint256"}],"outputs":[{"name":"","type":"uint256","internalType":"uint256"}],"stateMutability":"view"},{"type":"function","name":"withdrawFees","inputs":[],"outputs":[],"stateMutability":"nonpayable"},{"type":"event","name":"BetIncreased","inputs":[{"name":"predictionId","type":"uint256","indexed":true,"internalType":"uint256"},{"name":"user","type":"address","indexed":true,"internalType":"address"},{"name":"optionId","type":"uint8","indexed":false,"internalType":"uint8"},{"name":"addedAmount","type":"uint256","indexed":false,"internalType":"uint256"},{"name":"totalAmount","type":"uint256","indexed":false,"internalType":"uint256"}],"anonymous":false},{"type":"event","name":"BetPlaced","inputs":[{"name":"predictionId","type":"uint256","indexed":true,"internalType":"uint256"},{"name":"user","type":"address","indexed":true,"internalType":"address"},{"name":"optionId","type":"uint8","indexed":false,"internalType":"uint8"},{"name":"amount","type":"uint256","indexed":false,"internalType":"uint256"},{"name":"isBot","type":"bool","indexed":false,"internalType":"bool"}],"anonymous":false},{"type":"event","name":"BotRegistered","inputs":[{"name":"wallet","type":"address","indexed":true,"internalType":"address"},{"name":"botId","type":"string","indexed":false,"internalType":"string"}],"anonymous":false},{"type":"event","name":"BotUnregistered","inputs":[{"name":"wallet","type":"address","indexed":true,"internalType":"address"},{"name":"botId","type":"string","indexed":false,"internalType":"string"}],"anonymous":false},{"type":"event","name":"OwnershipTransferred","inputs":[{"name":"previousOwner","type":"address","indexed":true,"internalType":"address"},{"name":"newOwner","type":"address","indexed":true,"internalType":"address"}],"anonymous":false},{"type":"event","name":"PoolSeeded","inputs":[{"name":"predictionId","type":"uint256","indexed":true,"internalType":"uint256"},{"name":"amount","type":"uint256","indexed":false,"internalType":"uint256"}],"anonymous":false},{"type":"event","name":"PredictionCancelled","inputs":[{"name":"predictionId","type":"uint256","indexed":true,"internalType":"uint256"}],"anonymous":false},{"type":"event","name":"PredictionCreated","inputs":[{"name":"predictionId","type":"uint256","indexed":true,"internalType":"uint256"},{"name":"creator","type":"address","indexed":true,"internalType":"address"},{"name":"tokenAddress","type":"address","indexed":false,"internalType":"address"},{"name":"question","type":"string","indexed":false,"internalType":"string"},{"name":"predictionType","type":"uint8","indexed":false,"internalType":"enum CouncilPredictions.PredictionType"},{"name":"endTime","type":"uint256","indexed":false,"internalType":"uint256"},{"name":"optionLabels","type":"string[]","indexed":false,"internalType":"string[]"}],"anonymous":false},{"type":"event","name":"PredictionResolved","inputs":[{"name":"predictionId","type":"uint256","indexed":true,"internalType":"uint256"},{"name":"winningOption","type":"uint8","indexed":false,"internalType":"uint8"},{"name":"prizePool","type":"uint256","indexed":false,"internalType":"uint256"},{"name":"isTie","type":"bool","indexed":false,"internalType":"bool"}],"anonymous":false},{"type":"event","name":"RefundClaimed","inputs":[{"name":"predictionId","type":"uint256","indexed":true,"internalType":"uint256"},{"name":"user","type":"address","indexed":true,"internalType":"address"},{"name":"amount","type":"uint256","indexed":false,"internalType":"uint256"}],"anonymous":false},{"type":"event","name":"WinningsClaimed","inputs":[{"name":"predictionId","type":"uint256","indexed":true,"internalType":"uint256"},{"name":"user","type":"address","indexed":true,"internalType":"address"},{"name":"amount","type":"uint256","indexed":false,"internalType":"uint256"}],"anonymous":false},{"type":"error","name":"AlreadyBet","inputs":[]},{"type":"error","name":"AlreadyClaimed","inputs":[]},{"type":"error","name":"BetTooLarge","inputs":[]},{"type":"error","name":"BetTooSmall","inputs":[]},{"type":"error","name":"BettingEnded","inputs":[]},{"type":"error","name":"BettingStillOpen","inputs":[]},{"type":"error","name":"BotCannotBetOnSelf","inputs":[]},{"type":"error","name":"InvalidOption","inputs":[]},{"type":"error","name":"MustHoldToken","inputs":[]},{"type":"error","name":"NoBetFound","inputs":[]},{"type":"error","name":"NotCancelled","inputs":[]},{"type":"error","name":"NotOracle","inputs":[]},{"type":"error","name":"NotWinner","inputs":[]},{"type":"error","name":"OwnableInvalidOwner","inputs":[{"name":"owner","type":"address","internalType":"address"}]},{"type":"error","name":"OwnableUnauthorizedAccount","inputs":[{"name":"account","type":"address","internalType":"address"}]},{"type":"error","name":"PredictionAlreadyResolved","inputs":[]},{"type":"error","name":"PredictionCancelled_","inputs":[]},{"type":"error","name":"PredictionNotFound","inputs":[]},{"type":"error","name":"ReentrancyGuardReentrantCall","inputs":[]},{"type":"error","name":"TransferFailed","inputs":[]}],"bytecode":{"object":"0x60808060405234620000d9573315620000c4575f8054336001600160a01b0319821681178355604080519390929091906001600160a01b03167f8be0079c531659141344cd1fd0a4f28419497f9722a3daafe3b4186f6b6457e08380a360017f9b779b17422d0df92223018b32b4d1fa46e071723d6817e2486d003becc55f005567016345785d8a000060025568056bc75e2d63100000600355600160045560fa600555338152600c60205220600160ff19825416179055615ae19081620000de8239f35b631e4fbdf760e01b81525f6004820152602490fd5b5f80fdfe6080604052600436101561001a575b3615610018575f80fd5b005b5f3560e01c80624fbbb0146103f857806303edf914146103f357806312e8e2c3146103ee57806320a0846a146103e957806326232a2e146103e45780632d56657d146103df5780633bbac579146103da5780633ffb5f12146103d557806341fdb485146103d0578063476343ee146103cb5780634e43603a146103c6578063587f5ed7146103c15780635b7baf64146103bc5780635e875f54146103b75780636375693b146103b257806365360843146103ad578063677bd9ff146103a857806368e5f40d146103a35780636aaea6dc1461039e5780636b4169c3146103995780636c188593146103945780636e3770931461038f578063715018a61461038a57806377ef93a41461038557806377fe420c1461038057806378dc90be1461037b5780637ab6d036146103765780637cfbc7a5146103715780638068aa681461036c578063892c7e36146103675780638da5cb5b146103625780638e0596a21461035d5780638e7d7d8b146103585780638eb9c04e14610353578063a07ba8751461034e578063a240c27a14610349578063a2d52b8a14610344578063aa078f6b1461033f578063ab56f43b1461033a578063ab82d8fd14610335578063addd509914610330578063ae062acd1461032b578063af147a1414610326578063b4b6248f14610321578063bc5a85731461031c578063bd98772614610317578063c475179614610312578063c4dd82f61461030d578063cab11d5d14610308578063d424e5a014610303578063dc286e22146102fe578063de87b07d146102f9578063def656e6146102f4578063e4c36801146102ef578063ed80c9e2146102ea578063ede47290146102e5578063f032c5e0146102e0578063f2fde38b146102db578063f63821f6146102d6578063fa968eea146102d1578063fb4aaf0f146102cc5763fe83bece0361000e57614280565b6140d6565b6140b9565b61404d565b613fc7565b613f61565b613e77565b613e46565b613dce565b613cf3565b613c66565b613bea565b613b32565b613b15565b613af4565b613a9d565b6137a2565b613769565b613737565b613702565b61368f565b613652565b613628565b6135ba565b61335f565b6131df565b612f10565b612e44565b612678565b6125eb565b6125ce565b6125a7565b6123e8565b612370565b61234f565b612332565b612308565b6122de565b612081565b612016565b611f89565b611f25565b611e63565b611cb1565b611b5c565b61189c565b611847565b6117d8565b6116c0565b611543565b611526565b611349565b6112f3565b6112bd565b611273565b6111f9565b6110fd565b611013565b610e18565b610bda565b610732565b610683565b90600182811c9216801561042b575b602083101461041757565b634e487b7160e01b5f52602260045260245ffd5b91607f169161040c565b634e487b7160e01b5f52604160045260245ffd5b60a081019081106001600160401b0382111761046457604052565b610435565b606081019081106001600160401b0382111761046457604052565b6101c081019081106001600160401b0382111761046457604052565b604081019081106001600160401b0382111761046457604052565b90601f801991011681019081106001600160401b0382111761046457604052565b9060405191825f8254926104ef846103fd565b9081845260019485811690815f1461055a575060011461051a575b5050610518925003836104bb565b565b909391505f52602090815f20935f915b81831061054257505061051893508201015f8061050a565b8554888401850152948501948794509183019161052a565b91505061051894506020925060ff191682840152151560051b8201015f8061050a565b5f5b83811061058e5750505f910152565b818101518382015260200161057f565b906020916105b78151809281855285808601910161057d565b601f01601f1916010190565b600411156105cd57565b634e487b7160e01b5f52602160045260245ffd5b9060048210156105cd5752565b9b999795939e9d9c9a9896949291908c52600160a01b600190031660208c01526101c08060408d01528b016106229161059e565b9c60608b01610630916105e1565b60808a015260a089015260c088015260e087015260ff908116610100870152166101208501521515610140840152151561016083015215156101808201526001600160a01b039091166101a09190910152565b34610723576020366003190112610723576004355f908152600860205260409020805460018201546001600160a01b03929161071f9184166106c7600285016104dc565b9160ff8060038701541695600481015497600582015491600681015460086007830154920154936040519b8c9b8c958760281c169a888860201c169a898960181c169a8a8a60101c169a808b60081c169a16986105ee565b0390f35b5f80fd5b60ff81160361072357565b604080600319360112610723576004908135906024359261075284610727565b61075a614ded565b82158015610bcf575b610bc157610779835f52600860205260405f2090565b600881015460ff8160101c16610bb15760ff8160181c16610ba15782820154421015610b915760ff8616908115908115610b84575b50610b74576002543410610b64576003543411610b5457335f908152601160205260409020600193906107e99085905b015460081c60ff1690565b908180610b35575b610b00575b8115610ace575b5061083361082c33610817895f52600b60205260405f2090565b9060018060a01b03165f5260205260405f2090565b5460ff1690565b1561096357509160067fa6cc7be1a04897ee3665ce7f8f20b06f9c3d7d08de3ada158f72e1604e54cc9394926002610936956108b06108938a6108863360018060a01b03165f52600a60205260405f2090565b905f5260205260405f2090565b916108aa6108a48885015460ff1690565b60ff1690565b14614da1565b01926108bd348554614949565b84556108e5896108d58a5f52600960205260405f2090565b9060ff165f5260205260405f2090565b016108f1348254614949565b9055016108ff348254614949565b905561091561091034600754614949565b600755565b54905160ff9095168552346020860152604085015233939081906060820190565b0390a35b61001860017f9b779b17422d0df92223018b32b4d1fa46e071723d6817e2486d003becc55f0055565b917f4117fc1d1c9fb08a2e2d8296036155bf8e5513f4e27354b127b81e008ce208b8949150600790610ac6946109d561099a61171a565b89815260ff8b16602082015234818701525f60608201819052426080830152338152600a602052604090206109d0908b90610886565b614d15565b6109fb6109ee336108178b5f52600b60205260405f2090565b805460ff19166001179055565b610a1633610a118a5f52600e60205260405f2090565b6146c1565b335f908152600f60205260409020610a2f908990614d6d565b610a45896108d58a5f52600960205260405f2090565b01610a51348254614949565b90556002610a6b896108d58a5f52600960205260405f2090565b01610a7681546148ee565b905560068101610a87348254614949565b905501610a9481546148ee565b9055610aa561091034600754614949565b5160ff90951685523460208601521515604085015233939081906060820190565b0390a361093a565b83850154610aed90610ae9906001600160a01b031633614eba565b1590565b156107fd5785516396a2503b60e01b8152fd5b335f908152601160205260409020610b21906108a49087905b015460ff1690565b83036107f6578551636d39b52f60e11b8152fd5b5084610b45600386015460ff1690565b610b4e816105c3565b146107f1565b835163508bf05560e11b81528390fd5b8351631a6254d160e31b81528390fd5b8351632a71953160e01b81528390fd5b60ff91501681115f6107ae565b835163bfa8640560e01b81528390fd5b835163413aa53f60e01b81528390fd5b83516374deb87160e11b81528390fd5b90516316c919af60e31b8152fd5b506001548311610763565b3461072357602036600319011261072357600435610bf6614398565b6103e88111610c0457600555005b60405162461bcd60e51b815260206004820152600c60248201526b08ccaca40e8dede40d0d2ced60a31b6044820152606490fd5b90604080610c4f845160608552606085019061059e565b9360208101516020850152015191015290565b908082519081815260208091019281808460051b8301019501935f915b848310610c8f5750505050505090565b9091929394958480610cad600193601f198682030187528a51610c38565b9801930193019194939290610c7f565b805182526020808201516001600160a01b031690830152610da99190610cf2604082015161020080604086015284019061059e565b91610d05606083015160608301906105e1565b6080820151608082015260a082015160a082015260c082015160c082015260e082015160e0820152610d42610100808401519083019060ff169052565b6101208281015160ff16908201526101408281015115159082015261016082810151151590820152610180828101511515908201526101a0828101516001600160a01b0316908201526101c080830151908201526101e08092015191818403910152610c62565b90565b908082519081815260208091019281808460051b8301019501935f915b848310610dd95750505050505090565b9091929394958480610df7600193601f198682030187528a51610cbd565b9801930193019194939290610dc9565b906020610da9928181520190610dac565b34610723576020366003190112610723576001805460049182358281111561100d575081905b610e47826151f2565b925f5b838110610e5f576040518061071f8782610e07565b610e698183614e7e565b610e7b815f52600860205260405f2090565b60088101549060ff9182811692610e91846150dc565b93885b818382161115610fbe57508354898501549096906001600160a01b0316948d6003820154610ec29060ff1690565b90820154600583015491600684015493600781015495610eea905f52600d60205260405f2090565b5499610ef4611727565b9c8d526001600160a01b031660208d0152600201610f11906104dc565b60408c0152610f239060608c01614956565b60808a015260a089015260c088015260e087015260ff1661010086015260ff600883901c821616610120860152601082901c81161515610140860152601882901c81161515610160860152602082901c16151561018085015260281c6001600160a01b03166101a08401526101c08301526101e0820152610fa4828761513d565b52610faf818661513d565b50610fb9906148ee565b610e4a565b80611002610fdb611008936108d58b5f52600960205260405f2090565b85610fee610fe88561512b565b92615151565b911690610ffb828b61513d565b528861513d565b50614b06565b610e94565b90610e3e565b34610723575f366003190112610723576020600554604051908152f35b600435906001600160a01b038216820361072357565b9081518082526020808093019301915f5b828110611065575050505090565b835185529381019392810192600101611057565b909291604082019160408152845180935260608101926020809601905f5b8181106110b157505050610da99394818403910152611046565b9091948760a0826110f26001948a51608080918051845260ff6020820151166020850152604081015160408501526060810151151560608501520151910152565b019601929101611097565b346107235760208060031936011261072357611117611030565b5f60018060a01b0382168152600f835260408120926040518094859183825491828152019185528385209385905b8282106111df5750505061115b925003846104bb565b61116583516152af565b905b83518110156111d0576111cb906111b06111ab6111948660018060a01b03165f52600a60205260405f2090565b61119e848961513d565b515f5260205260405f2090565b61526b565b6111ba828561513d565b526111c5818461513d565b506148ee565b611167565b6040518061071f868583611079565b855484526001958601958995509381019390910190611145565b34610723576020366003190112610723576001600160a01b0361121a611030565b165f526011602052602060ff600160405f20015460081c166040519015158152f35b634e487b7160e01b5f52603260045260245ffd5b919091805483101561126e575f52601f60205f208360051c01921690565b61123c565b34610723576040366003190112610723576024356004355f52601060205260405f20908154811015610723576112ad60ff91602093611250565b9190546040519260031b1c168152f35b346107235760603660031901126107235760206112eb6024356112df81610727565b60443590600435615477565b604051908152f35b34610723575f806003193601126113465761130c614398565b808080806006548160065560018060a01b038254165af161132b614e8b565b50156113345780f35b6040516312171d8360e31b8152600490fd5b80fd5b3461072357602036600319011261072357611362611030565b61136a6152fe565b506001600160a01b0381165f908152600f602052604090209061138b6152fe565b918054918284525f9160208501925b8481106113ea5761071f866040519182918291909160a08060c083019480518452602081015160208501526040810151604085015260608101516060850152608081015160808501520151910152565b806114056113fb61148593856116ab565b90549060031b1c90565b6001600160a01b0385165f908152600a60205260409020611427908290610886565b9061143a815f52600860205260405f2090565b90600860028401549261144e848b51614949565b8a52015460ff90818160101c169182159182611518575b50501561148a57505050506080870161147e81516148ee565b90526148ee565b61139a565b611497575b5050506148ee565b6114ae6114a8600185015460ff1690565b82614f32565b156114ff576114c7610ae960036114d095015460ff1690565b6114ea5761533f565b6114df60408901918251614949565b90525b5f808061148f565b60a08a016114f881516148ee565b905261533f565b50905061151160608901918251614949565b90526114e2565b60181c161590505f80611465565b34610723575f366003190112610723576020600654604051908152f35b346107235760203660031901126107235760048035611560614ded565b801580156116a0575b6116905761157f815f52600860205260405f2090565b6115b1610ae960086115a5856108863360018060a01b03165f52600a60205260405f2090565b93015460181c60ff1690565b61167f57600281019081541561166e57600301805460ff1661165d57805460ff191660011790555f92838080808554335af16115eb614e8b565b501561164e5750546040519081523391907ff3f402280ef0a7905e124aa621b65eaeb2725c343e8b36d398ed78c29daf285c90602090a361164b60017f9b779b17422d0df92223018b32b4d1fa46e071723d6817e2486d003becc55f0055565b80f35b6040516312171d8360e31b8152fd5b604051630c8d9eab60e31b81528490fd5b60405163c68bdd8160e01b81528490fd5b604051632069e45f60e11b81528390fd5b506040516316c919af60e31b8152fd5b506001548111611569565b805482101561126e575f5260205f2001905f90565b34610723576020366003190112610723576004356013548110156107235760135f527f66de8ffda797e3de9c05e8fc57b3bf0ec28a930d40b0d285d93c06501cf6a09001546040516001600160a01b039091168152602090f35b6040519061051882610449565b6040519061020082018281106001600160401b0382111761046457604052565b6040519061051882610469565b6040519061051882610484565b6001600160401b03811161046457601f01601f191660200190565b92919261178882611761565b9161179660405193846104bb565b829481845281830111610723578281602093845f960137010152565b60206117cb91816040519382858094519384920161057d565b8101601281520301902090565b34610723576020366003190112610723576004356001600160401b0381116107235736602382011215610723576020906001600160a01b039061182e9061182990369060048101359060240161177c565b6117b2565b5416604051908152f35b60443590811515820361072357565b3461072357604036600319011261072357611860611030565b60243580151581036107235761001891611878614398565b60018060a01b03165f52600c60205260405f209060ff801983541691151516179055565b3461072357602036600319011261072357600480356118b9614ded565b80158015611b24575b611690576118d8815f52600860205260405f2090565b335f908152600a602052604090206118f1908390610886565b906008810190815460ff8160101c1615611b135760181c60ff16611b02576002830190815415611af15760038401805460ff16611ae057611943610ae961193d60018098015460ff1690565b88614f32565b611acf57805460ff19166001179055611977906006015461197161196960055483614936565b612710900490565b90614e7e565b915460ff8160201c165f14611a8457505f928084915b6119f5575b50506119a892916119a39154614936565b614901565b915b5f80808086335af16119ba614e8b565b501561164e575060405191825233917f5380cf6fe903b40c6d5a9e0dfbca2f3a423f0a21520b4d5947ed5169bdba946d908060208101610936565b9093611a09865f52601060205260405f2090565b54851015611a7e57611a78611a72839283611a6a8a611a5b611a4e8c611a49611a3a855f52600960205260405f2090565b945f52601060205260405f2090565b611250565b905460ff9160031b1c1690565b60ff165f5260205260405f2090565b015490614949565b956148ee565b9161198d565b93611992565b611ac9939192611ab9611ac09260ff611aa5895f52600960205260405f2090565b9160081c1660ff165f5260205260405f2090565b9354614936565b91015490614901565b916119aa565b6040516330c6392160e11b81528790fd5b604051630c8d9eab60e31b81528790fd5b60405163c68bdd8160e01b81528690fd5b60405163413aa53f60e01b81528590fd5b6040516316c919af60e31b81528690fd5b5060015481116118c2565b9181601f84011215610723578235916001600160401b038311610723576020838186019501011161072357565b3461072357606036600319011261072357611b75611030565b6024356001600160401b03811161072357611b94903690600401611b2f565b6044359291611ba284610727565b611baa614398565b6001600160a01b038316938415611c7b577f9d9a9feadcb3910f929bbfb8411e8c78a4504cd692b7313c2a1be2e2b95470b193611c35611c6792611bef8615156143c3565b611c12611bfa611747565b91611c0636898961177c565b835260ff166020830152565b600160408201526001600160a01b0383165f90815260116020526040902061451a565b611c6281611c438686614642565b80546001600160a01b0319166001600160a01b03909216919091179055565b61465b565b611c766040519283928361471c565b0390a2005b60405162461bcd60e51b815260206004820152600e60248201526d125b9d985b1a59081dd85b1b195d60921b6044820152606490fd5b34610723576040806003193601126107235760049081359160243590611cd682610727565b335f52600c60205260ff835f2054161580611e4f575b611e415783158015611e36575b611e2857611d0f845f52600860205260405f2090565b906008820190815460ff8160101c16611e195760ff8160181c16611e0a57818401544210611dfb5760ff85168015918215611dee575b5050611de0575060068392611d947ff4d5a97d77de0a30dddc5e139bd89f3768efd372c77a7ac80a6692e4b7cb2d0c969584611d8f611c76966201000062ff000019825416179055565b61497a565b42600582015501611dbf611dba611db2611969845460055490614936565b600654614949565b600655565b549251928392836040905f92949360ff606083019616825260208201520152565b8451632a71953160e01b8152fd5b60ff161090505f80611d45565b50845163605d9c5960e11b8152fd5b50845163413aa53f60e01b8152fd5b5084516374deb87160e11b8152fd5b82516316c919af60e31b8152fd5b506001548411611cf9565b8251631bc2178f60e01b8152fd5b505f546001600160a01b0316331415611cec565b34610723575f80600319360112611346578060015490600754926006549060015b84811115611eb65750509061071f91604051948594859094939260609260808301968352602083015260408201520152565b80825260088060205260408320908101549060ff808360101c16159283611f17575b505081611f09575b50611ef4575b611eef906148ee565b611e84565b92611f01611eef916148ee565b939050611ee6565b60049150015442105f611ee0565b60181c161591505f80611ed8565b3461072357602036600319011261072357611f3e614398565b600435600255005b602090816040818301928281528551809452019301915f5b828110611f6c575050505090565b83516001600160a01b031685529381019392810192600101611f5e565b34610723575f36600319011261072357604051806013549182815260208091019260135f527f66de8ffda797e3de9c05e8fc57b3bf0ec28a930d40b0d285d93c06501cf6a090915f905b828210611ff65761071f85611fea818903826104bb565b60405191829182611f46565b83546001600160a01b031686529485019460019384019390910190611fd3565b34610723575f806003193601126113465761202f614398565b80546001600160a01b03198116825581906001600160a01b03167f8be0079c531659141344cd1fd0a4f28419497f9722a3daafe3b4186f6b6457e08280a380f35b906020610da9928181520190611046565b346107235760203660031901126107235761209a611030565b6001600160a01b0381165f908152600f60205260408120805491805b83811061220757506120c790615445565b925f90815b8481106120e1576040518061071f8882612070565b6001600160a01b0382165f908152600a6020526040902061216b919061211a9061210e6113fb84896116ab565b5f5260205260405f2090565b600861213a61212c6113fb858a6116ab565b5f52600860205260405f2090565b015460ff90818160101c16806121f0575b806121cc575b6121a6575b60181c169081612196575b50612170576148ee565b6120cc565b61217d6113fb82876116ab565b612190612189866148ee565b958961513d565b526148ee565b6003015460ff161590505f612161565b6121b36113fb858a6116ab565b6121c66121bf896148ee565b988c61513d565b52612156565b506121eb6121dd6113fb868b6116ab565b600185015460ff1690614f32565b612151565b50612202610ae9600385015460ff1690565b61214b565b6001600160a01b0385165f908152600a6020526040902061222f9061210e6113fb84876116ab565b600861224161212c6113fb85886116ab565b015460ff90818160101c16806122c7575b806122b1575b6122a1575b60181c169081612291575b5061227c575b612277906148ee565b6120b6565b90612289612277916148ee565b91905061226e565b6003015460ff161590505f612268565b936122ab906148ee565b9361225d565b506122c26121dd6113fb86896116ab565b612258565b506122d9610ae9600385015460ff1690565b612252565b34610723576020366003190112610723576004355f52600e602052602060405f2054604051908152f35b346107235760403660031901126107235760206112eb60243561232a81610727565b6004356154ee565b34610723575f366003190112610723576020600454604051908152f35b3461072357602036600319011261072357612368614398565b600435600355005b34610723576040366003190112610723576001600160a01b03612391611030565b165f52600a60205260405f206024355f5260205260a060405f2080549060ff600182015416906002810154600460ff6003840154169201549260405194855260208501526040840152151560608301526080820152f35b60403660031901126107235760043560243561240381610727565b61240b614398565b8115801561259c575b61258a576124233415156159b8565b612435825f52600860205260405f2090565b906008820180549160ff9261244f848260101c16156159f7565b61245e848260181c1615615a36565b818416908161253e5750505061248161247b6108a4835460ff1690565b34614901565b9160019081805b6124ec575b5050506124ad6124b7926124a76108a46006945460ff1690565b90614936565b9201918254614949565b90555b6040513481527f3ce3bc06c5a63b1ec4be80a76230f72728f9bdec240f0f1ee44b9f7906abb137908060208101611c76565b6124fa6108a4855460ff1690565b828216116125395790612532828461251f81956108d58c5f52600960205260405f2090565b0161252b888254614949565b9055614b06565b9091612488565b61248d565b6001935061256992916006969561255792161015615a6e565b6108d5865f52600960205260405f2090565b01612575348254614949565b905501612583348254614949565b90556124ba565b6040516316c919af60e31b8152600490fd5b506001548211612414565b34610723575f366003190112610723575f546040516001600160a01b039091168152602090f35b34610723575f366003190112610723576020600154604051908152f35b34610723576040366003190112610723576024356004355f52600e60205260405f20805482101561072357602091612622916116ab565b905460405160039290921b1c6001600160a01b03168152f35b602090816040818301928281528551809452019301915f5b828110612661575050505090565b835160ff1685529381019392810192600101612653565b3461072357602080600319360112610723576004355f5260108082526040805f20815192836126ba6126b08454809360209181520190565b935f5260205f2090565b5f905b82601f830110612b8e579287926127e1959261071f9989965493838310612b79575b838310612b60575b838310612b49575b50828210612b2a575b828210612b14575b828210612af5575b828210612ad6575b828210612ab7575b828210612aa2575b828210612a83575b828210612a64575b828210612a45575b828210612a26575b828210612a07575b8282106129e8575b8282106129c9575b8282106129aa575b82821061298b575b82821061296c575b82821061294d575b82821061292e575b82821061290f575b8282106128f0575b8282106128d1575b8282106128b2575b828210612893575b828210612874575b828210612855575b828210612836575b828210612817575b8282106127f8575b50106127eb575b50905003836104bb565b519182918261263b565b60f81c815201805f6127d7565b8461280e6001939660ff8760f01c1660ff169052565b019301846127d0565b8461282d6001939660ff8760e81c1660ff169052565b019301846127c8565b8461284c6001939660ff8760e01c1660ff169052565b019301846127c0565b8461286b6001939660ff8760d81c1660ff169052565b019301846127b8565b8461288a6001939660ff8760d01c1660ff169052565b019301846127b0565b846128a96001939660ff8760c81c1660ff169052565b019301846127a8565b846128c86001939660ff8760c01c1660ff169052565b019301846127a0565b846128e76001939660ff8760b81c1660ff169052565b01930184612798565b846129066001939660ff8760b01c1660ff169052565b01930184612790565b846129256001939660ff8760a81c1660ff169052565b01930184612788565b846129446001939660ff8760a01c1660ff169052565b01930184612780565b846129636001939660ff8760981c1660ff169052565b01930184612778565b846129826001939660ff8760901c1660ff169052565b01930184612770565b846129a16001939660ff8760881c1660ff169052565b01930184612768565b846129c06001939660ff8760801c1660ff169052565b01930184612760565b846129df6001939660ff8760781c1660ff169052565b01930184612758565b846129fe6001939660ff8760701c1660ff169052565b01930184612750565b84612a1d6001939660ff8760681c1660ff169052565b01930184612748565b84612a3c6001939660ff8760601c1660ff169052565b01930184612740565b84612a5b6001939660ff8760581c1660ff169052565b01930184612738565b84612a7a6001939660ff8760501c1660ff169052565b01930184612730565b84612a996001939660ff8760481c1660ff169052565b01930184612728565b60ff848a1c1685529093019260010184612720565b84612acd6001939660ff8760381c1660ff169052565b01930184612718565b84612aec6001939660ff8760301c1660ff169052565b01930184612710565b84612b0b6001939660ff8760281c1660ff169052565b01930184612708565b83811c60ff168552909360019101930184612700565b84612b406001939660ff8760181c1660ff169052565b019301846126f8565b84901c60ff1685529093600191019301845f6126ef565b600885901c60ff168652919460019082019501916126e7565b60ff85168652919460019082019501916126df565b93600161040082612e28612be6612e1d89612df68f98612da68f8f612c5b93612d068e612d5693549a8b99612bc98560ff809d1660ff169052565b60ff60088e901c8c1616858401528a8d888701921c1660ff169052565b888b610200606095612c01878201858560181c1660ff169052565b612c166080958585888501921c1660ff169052565b612cbc60a097612c2f898401878760281c1660ff169052565b612c6c60c09b612c488d8601898960301c1660ff169052565b60e09e8f8601898960381c1660ff169052565b87876101008701921c1660ff169052565b612c816101208401878760481c1660ff169052565b612c966101408401878760501c1660ff169052565b612cab6101608401878760581c1660ff169052565b85856101808501921c1660ff169052565b612cd16101a08201858560681c1660ff169052565b612ce66101c08201858560701c1660ff169052565b612cfb6101e08201858560781c1660ff169052565b01921c1660ff169052565b612d1b6102208c01888b60881c1660ff169052565b612d306102408c01888b60901c1660ff169052565b612d456102608c01888b60981c1660ff169052565b86896102808d01921c1660ff169052565b612d6b6102a08a01868960a81c1660ff169052565b612d806102c08a01868960b01c1660ff169052565b612d956102e08a01868960b81c1660ff169052565b84876103008b01921c1660ff169052565b612dbb6103208801848760c81c1660ff169052565b612dd06103408801848760d01c1660ff169052565b612de56103608801848760d81c1660ff169052565b82856103808901921c1660ff169052565b612e0b6103a08601828560e81c1660ff169052565b6103c08501908360f01c1660ff169052565b60f81c6103e0830152565b0195019101906126bd565b906020610da9928181520190610c62565b3461072357602080600319360112610723576004355f918183526008815260ff60409381600886832001541692612e7a846150dc565b9460015b858582161115612e955787518061071f8982612e33565b612edb9082855260098452611002612eba828b88209060ff165f5260205260405f2090565b87612ec7610fe88561512b565b911690612ed4828c61513d565b528961513d565b612e7e565b9181601f84011215610723578235916001600160401b038311610723576020808501948460051b01011161072357565b60a036600319011261072357612f24611030565b6001600160401b0360243581811161072357612f44903690600401611b2f565b9092604435916004831015610723576064359360843590811161072357612f6f903690600401612ee0565b909590612f866001600160a01b038516151561473e565b612f91831515614782565b612f9f610e108710156147ce565b612fae62278d0087111561480f565b612fbb600282101561484f565b612fc8600a82111561489b565b600194612fdd612fd887546148ee565b600155565b855496612fea8334614901565b96612ff58489614936565b612fff8342614949565b98613008611754565b8b81526001600160a01b038a16602080830191909152908c906130a790613030368d8d61177c565b9d60409e8f8301526130458a60608401614956565b60808201525f958660a083015260c08201528560e08201526130a260ff93613076858d1661010085019060ff169052565b6101208301889052610140830188905261016083018890526101808301889052336101a084015261212c565b614994565b8c6130bb42915f52600d60205260405f2090565b5583855b613158575b50505050505087949261071f997fddbe38e556b87bb3fd0403026844e7d5662901e4ea9199399d3786c7f1a7e6fe959361310161310f9442614949565b908a51968796339b88614c4f565b0390a334613126575b519081529081906020820190565b805134815282907f3ce3bc06c5a63b1ec4be80a76230f72728f9bdec240f0f1ee44b9f7906abb13790602090a2613118565b818116898110156131c857908f8f8f6131af613197928a8f936131856131c2996131b8966131bd99614b17565b969061318f611747565b97369161177c565b86528b8b8701528501525f52600960205260405f2090565b611a5b85614b58565b614b6a565b614b06565b856130bf565b506130c4565b906020610da9928181520190610cbd565b34610723576020366003190112610723576004356131fb615180565b5061320e815f52600860205260405f2090565b60088101549060ff9182811692613224846150dc565b9360015b81838216111561333d5750835460018501549096906001600160a01b03169460038101546132569060ff1690565b600482015460058301549160068401549360078101549561327f905f52600d60205260405f2090565b5499613289611727565b9c8d526001600160a01b031660208d01526002016132a6906104dc565b60408c01526132b89060608c01614956565b60808a015260a089015260c088015260e087015260ff1661010086015260ff600883901c821616610120860152601082901c81161515610140860152601882901c81161515610160860152602082901c16151561018085015260281c6001600160a01b03166101a08401526101c08301526101e082015260405161071f8192826131ce565b80611002610fdb61335a936108d58b5f52600960205260405f2090565b613228565b34610723576080366003190112610723576024356004803561338083610727565b613388611838565b6064356001600160401b038111610723576133a69036908501612ee0565b9490915f94338652600c60205260409360ff858820541615806135a6575b613597578515801561358c575b61357d576133e7865f52600860205260405f2090565b916008830190815460ff8160101c1661356e5760ff8160181c1661355f578185015442106135505760ff87168015918215613543575b50506135355750805462ff0000191662010000178155613467908490613443878261497a565b4260058601559064ff00000000825491151560201b169064ff000000001916179055565b828061352c575b6134e0575b507ff4d5a97d77de0a30dddc5e139bd89f3768efd372c77a7ac80a6692e4b7cb2d0c93929160066134da92016134b6611dba611db2611969845460055490614936565b549351938493849192604091949360ff606085019616845260208401521515910152565b0390a280f35b865b8881106134ef5750613473565b806135228a61351c613517613527956135108d5f52601060205260405f2090565b9388614e2f565b614e3f565b90614e49565b6148ee565b6134e2565b5087151561346e565b8651632a71953160e01b8152fd5b60ff161090505f8061341d565b50865163605d9c5960e11b8152fd5b50865163413aa53f60e01b8152fd5b5086516374deb87160e11b8152fd5b5083516316c919af60e31b8152fd5b5060015486116133d1565b508351631bc2178f60e01b8152fd5b5086546001600160a01b03163314156133c4565b3461072357602080600319360112610723576004355f52600e815260405f209060405190818184549182815201935f52815f20915f905b8282106136085761071f85611fea818903826104bb565b83546001600160a01b0316865294850194600193840193909101906135f1565b34610723576020366003190112610723576004355f52600d602052602060405f2054604051908152f35b34610723576020366003190112610723576001600160a01b03613673611030565b165f52600c602052602060ff60405f2054166040519015158152f35b34610723576040366003190112610723576024356001600160a01b03811681036107235760ff6136dd6020926004355f52600b845260405f209060018060a01b03165f5260205260405f2090565b54166040519015158152f35b604090610da9939215158152816020820152019061059e565b346107235760403660031901126107235761372761371e611030565b60243590615770565b9061071f604051928392836136e9565b3461072357606036600319011261072357613727613753611030565b6044359061376082610727565b602435906158f9565b34610723575f366003190112610723576020600754604051908152f35b92919061379d602091604086526040860190610dac565b930152565b34610723576040366003190112610723576024355f6001918254925b83811115613a2857506032811115613a23575060325b6137dd816151f2565b905f92839160015b8681111580613a1a575b15613a0857613806815f52600860205260405f2090565b60088101549060ff8260101c16908115806139fa575b806139ed575b613838575b505050613833906148ee565b6137e5565b600498939892833588106139d5578061385360ff82166150dc565b9360015b8c60ff841660ff8316111561398c575050835460018501549091908d906001600160a01b031697600387015461388d9060ff1690565b9087015460058801549060068901549260078a0154946138b5905f52600d60205260405f2090565b54996138bf611727565b9788526001600160a01b03909c16602080890191909152969b6002016138e4906104dc565b60408d01526138f69060608d01614956565b60808b015260a08a015260c089015260e088015260ff831661010088015260ff600884901c16610120880152151561014087015260ff601883901c1615156101608701521c60ff16151561018085015260281c6001600160a01b03166101a08401526101c08301526101e082015261396e828761513d565b52613979818661513d565b50613983906148ee565b945f8080613827565b6139cd9293506139ab826108d5611002935f52600960205260405f2090565b60ff6139b9610fe88561512b565b9116906139c6828a61513d565b528761513d565b908291613857565b5050505094926139e7613833916148ee565b936148ee565b5060048101544210613822565b5060ff8360181c161561381c565b8585526040518061071f858883613786565b508186106137ef565b6137d4565b613a3a815f52600860205260405f2090565b60088101549060ff808360101c16159283613a8f575b505081613a81575b50613a6c575b613a67906148ee565b6137be565b91613a79613a67916148ee565b929050613a5e565b60049150015442105f613a58565b60181c161591505f80613a50565b3461072357604036600319011261072357613ab6611030565b6001600160a01b03165f908152600f602052604090208054602435919082101561072357602091613ae6916116ab565b90546040519160031b1c8152f35b3461072357602036600319011261072357613b0d614398565b600480359055005b34610723575f366003190112610723576020600354604051908152f35b3461072357602036600319011261072357600435613b4e614398565b80158015613bdf575b61258a575f90808252600860205260086040832001805460ff8160101c16613bcd5760181c60ff16613bbb57805463ff000000191663010000001790557faf9d749692c27edb73692839024a98f047b114c6fd450acf3c702120928a2be28280a280f35b60405163413aa53f60e01b8152600490fd5b6040516374deb87160e11b8152600490fd5b506001548111613b57565b34610723576020366003190112610723576001600160a01b03613c0b611030565b165f526011602052602060ff600160405f20015416604051908152f35b6105189092919260a0810193608080918051845260ff6020820151166020850152604081015160408501526060810151151560608501520151910152565b34610723576040806003193601126107235761071f90613c84611030565b613c8c615241565b5060018060a01b03165f52600a602052805f206024355f52602052805f20906004815192613cb984610449565b8054845260ff600182015416602085015260028101548385015260ff60038201541615156060850152015460808301525191829182613c28565b3461072357602036600319011261072357600435613d19815f52600860205260405f2090565b613d2a6108a4600883015460ff1690565b90613d3482615445565b92600190815b8460ff82161115613d53576040518061071f8882612070565b8083613d6e613d9d936108d5865f52600960205260405f2090565b015480158015613dc2575b15613da25750612710613d97613d916108a48461512b565b8961513d565b52614b06565b613d3a565b613db3906119a3600688015461491f565b613d97613d916108a48461512b565b50600686015415613d79565b3461072357604036600319011261072357613e37613e0f602435613df181610727565b6004355f52600960205260405f209060ff165f5260205260405f2090565b613e18816104dc565b906002600182015491015460405193849360608552606085019061059e565b91602084015260408301520390f35b34610723576040366003190112610723576020613e6d613e64611030565b6024359061555e565b6040519015158152f35b3461072357602036600319011261072357613e90611030565b613e98614398565b6001600160a01b03165f81815260116020526040902060018101805490919060081c60ff1615613f27577fac5e8dc78c4cc441693a38065735c8fba28472b6ddf27eb599c088fc6c83464f91613eff613ef3611c76936104dc565b825461ff001916909255565b613f1b613f0b826117b2565b80546001600160a01b0319169055565b6040519182918261472d565b60405162461bcd60e51b8152602060048201526012602482015271109bdd081b9bdd081c9959da5cdd195c995960721b6044820152606490fd5b346107235760403660031901126107235761071f613fb3613fae602435613f8781610727565b613f8f6150bd565b506004355f52600960205260405f209060ff165f5260205260405f2090565b615151565b604051918291602083526020830190610c38565b3461072357602036600319011261072357613fe0611030565b613fe8614398565b6001600160a01b039081168015614035575f80546001600160a01b03198116831782559092167f8be0079c531659141344cd1fd0a4f28419497f9722a3daafe3b4186f6b6457e08380a380f35b604051631e4fbdf760e01b81525f6004820152602490fd5b34610723576020366003190112610723576001600160a01b0361406e611030565b165f5260116020526140a160405f206001614088826104dc565b91015460ff60405193849360608552606085019061059e565b91818116602085015260081c16151560408301520390f35b34610723575f366003190112610723576020600254604051908152f35b34610723576020366003190112610723576140ef611030565b6140f76150bd565b5060018060a01b03165f52601160205261416260405f2060016040519161411d83610469565b614126816104dc565b83520154602082019060ff8116825260ff604084019160081c161515815260ff604051948594602086525160606020870152608086019061059e565b925116604084015251151560608301520390f35b604080825282519082015260208201516001600160a01b03166060820152610da9929061427360408401516141b96101c09182608086015261020085019061059e565b946141cc606082015160a08601906105e1565b608081015160c085015260a081015160e085015261426060c082015192610100938487015260e083015193610120948588015283015193614215610140958689019060ff169052565b8301519361422b610160958689019060ff169052565b83015193614240610180958689019015159052565b830151936142556101a0958689019015159052565b830151151590860152565b01516001600160a01b03166101e0830152565b6020818403910152610c62565b34610723576020366003190112610723576004356040516142a081610484565b5f808252806020830152606060408301528060608301528060808301528060a08301528060c08301528060e08301526101a061010092828482015282610120820152826101408201528261016082015282610180820152015261431361430e835f52600860205260405f2090565b614fcf565b9081019061432d6143286108a4845160ff1690565b6150dc565b9260019283805b614348575b6040518061071f888783614176565b6143566108a4835160ff1690565b60ff9081831611614392579061100261438c9261437f836108d5885f52600960205260405f2090565b90610fee610fe88561512b565b84614334565b50614339565b5f546001600160a01b031633036143ab57565b60405163118cdaa760e01b8152336004820152602490fd5b156143ca57565b60405162461bcd60e51b815260206004820152600d60248201526c125b9d985b1a5908189bdd1259609a1b6044820152606490fd5b90601f811161440d57505050565b5f91825260208220906020601f850160051c83019410614448575b601f0160051c01915b82811061443d57505050565b818155600101614431565b9092508290614428565b91909182516001600160401b038111610464576144798161447384546103fd565b846143ff565b602080601f83116001146144b35750819293945f926144a8575b50508160011b915f199060031b1c1916179055565b015190505f80614493565b90601f198316956144c7855f5260205f2090565b925f905b888210614502575050836001959697106144ea575b505050811b019055565b01515f1960f88460031b161c191690555f80806144e0565b806001859682949686015181550195019301906144cb565b91909182519081516001600160401b0381116104645761453e8161447384546103fd565b6020928390601f83116001146145c75761458a60016145a195856040966105189a9b9661459a965f926145bc575b50505f19600383901b1c191690831b1781555b019583015160ff1690565b855460ff191660ff909116178555565b0151151590565b908054909161ff001990911690151560081b61ff0016179055565b015190505f8061456c565b90601f198316916145db855f5260205f2090565b925f5b81811061462b57506145a1956001866105189a9b9661459a9661458a9660409a859710614613575b505050811b01815561457f565b01515f1960f88460031b161c191690555f8080614606565b9293876001819287860151815501950193016145de565b6020908260405193849283378101601281520301902090565b60135490600160401b82101561046457600182018060135582101561126e5760135f527f66de8ffda797e3de9c05e8fc57b3bf0ec28a930d40b0d285d93c06501cf6a09090910180546001600160a01b0319166001600160a01b03909216919091179055565b8054600160401b811015610464576146de916001820181556116ab565b819291549060031b9160018060a01b03809116831b921b1916179055565b908060209392818452848401375f828201840152601f01601f1916010190565b916020610da99381815201916146fc565b906020610da992818152019061059e565b1561474557565b60405162461bcd60e51b8152602060048201526015602482015274496e76616c696420746f6b656e206164647265737360581b6044820152606490fd5b1561478957565b60405162461bcd60e51b815260206004820152601860248201527f5175657374696f6e2063616e6e6f7420626520656d70747900000000000000006044820152606490fd5b156147d557565b60405162461bcd60e51b8152602060048201526012602482015271111d5c985d1a5bdb881d1bdbc81cda1bdc9d60721b6044820152606490fd5b1561481657565b60405162461bcd60e51b81526020600482015260116024820152704475726174696f6e20746f6f206c6f6e6760781b6044820152606490fd5b1561485657565b60405162461bcd60e51b815260206004820152601760248201527f4e656564206174206c656173742032206f7074696f6e730000000000000000006044820152606490fd5b156148a257565b60405162461bcd60e51b815260206004820152601060248201526f546f6f206d616e79206f7074696f6e7360801b6044820152606490fd5b634e487b7160e01b5f52601160045260245ffd5b5f1981146148fc5760010190565b6148da565b811561490b570490565b634e487b7160e01b5f52601260045260245ffd5b90612710918281029281840414901517156148fc57565b818102929181159184041417156148fc57565b919082018092116148fc57565b60048210156105cd5752565b9060048110156105cd5760ff80198354169116179055565b8054909161ff001990911660089190911b61ff0016179055565b8151815560208201516001820180546001600160a01b0319166001600160a01b039092169190911790556105189190614adc906101a0906008906149df604086015160028301614452565b6149f960608601516149f0816105c3565b60038301614962565b6080850151600482015560a0850151600582015560c0850151600682015560e085015160078201550192614a3561458a61010083015160ff1690565b614a4d614a4761012083015160ff1690565b8561497a565b614a76614a5e610140830151151590565b855462ff0000191690151560101b62ff000016178555565b614aa1614a87610160830151151590565b855463ff000000191690151560181b63ff00000016178555565b614ace614ab2610180830151151590565b855464ff00000000191690151560201b64ff0000000016178555565b01516001600160a01b031690565b815465010000000000600160c81b03191660289190911b65010000000000600160c81b0316179055565b60ff1660ff81146148fc5760010190565b919081101561126e5760051b81013590601e19813603018212156107235701908135916001600160401b038311610723576020018236038113610723579190565b60ff60019116019060ff82116148fc57565b90805180516001600160401b03811161046457614b9181614b8b86546103fd565b866143ff565b6020918290601f8311600114614be057918060409492600296945f92614bd5575b50508160011b915f199060031b1c19161785555b81015160018501550151910155565b015190505f80614bb2565b90601f19831691614bf4875f5260205f2090565b925f5b818110614c385750926001928592600298966040989610614c20575b505050811b018555614bc6565b01515f1960f88460031b161c191690555f8080614c13565b929386600181928786015181550195019301614bf7565b9293969491614c7990614c849260018060a01b0316855260209560a08787015260a08601916146fc565b9660408401906105e1565b6060820152608081860391015281845280840193818360051b82010194845f925b858410614cb6575050505050505090565b90919293949596601f198282030184528735601e19843603018112156107235783018681019190356001600160401b03811161072357803603831361072357614d04889283926001956146fc565b990194019401929594939190614ca5565b90608060049180518455614d3d60ff602083015116600186019060ff1660ff19825416179055565b60408101516002850155614d6660608201511515600386019060ff801983541691151516179055565b0151910155565b8054600160401b81101561046457614d8a916001820181556116ab565b819291549060031b91821b915f19901b1916179055565b15614da857565b60405162461bcd60e51b815260206004820152601b60248201527f43616e206f6e6c792061646420746f2073616d65206f7074696f6e00000000006044820152606490fd5b7f9b779b17422d0df92223018b32b4d1fa46e071723d6817e2486d003becc55f006002815414614e1d5760029055565b604051633ee5aeb560e01b8152600490fd5b919081101561126e5760051b0190565b35610da981610727565b8054600160401b81101561046457614e6691600182018155611250565b60ff80839493549260031b9316831b921b1916179055565b919082039182116148fc57565b3d15614eb5573d90614e9c82611761565b91614eaa60405193846104bb565b82523d5f602084013e565b606090565b6040516370a0823160e01b81526001600160a01b0391821660048201529160209183916024918391165afa5f9181614eff575b50614ef757505f90565b600454111590565b90916020823d8211614f2a575b81614f19602093836104bb565b81010312611346575051905f614eed565b3d9150614f0c565b906008614f47835f52600860205260405f2090565b015460ff90818160101c1615614fc757818160201c16614f6f578192935060081c1691161490565b505f5b614f84845f52601060205260405f2090565b54811015614fc757614fa86108a4611a4e83611a49885f52601060205260405f2090565b82841614614fbe57614fb9906148ee565b614f72565b50505050600190565b505050505f90565b906105186008614fdd611754565b8454815260018501546001600160a01b0316602082015293615001600282016104dc565b6040860152615020615017600383015460ff1690565b60608701614956565b60048101546080860152600581015460a0860152600681015460c0860152600781015460e0860152015460ff8116610100850152600881901c60ff16610120850152601081901c60ff161515610140850152601881901c60ff161515610160850152602081901c60ff16151561018085015260281c6001600160a01b03166101a0840152565b6001600160401b0381116104645760051b60200190565b604051906150ca82610469565b5f604083606081528260208201520152565b906150e6826150a6565b6150f360405191826104bb565b8281528092615104601f19916150a6565b01905f5b82811061511457505050565b60209061511f6150bd565b82828501015201615108565b60ff5f199116019060ff82116148fc57565b805182101561126e5760209160051b010190565b9060405161515e81610469565b60406002829461516d816104dc565b8452600181015460208501520154910152565b615188611727565b905f808352806020840152606060408401528060608401528060808401528060a08401528060c08401528060e08401528061010084015280610120840152806101408401528061016084015280610180840152806101a08401526101c083015260606101e0830152565b906151fc826150a6565b61520960405191826104bb565b828152809261521a601f19916150a6565b01905f5b82811061522a57505050565b602090615235615180565b8282850101520161521e565b6040519061524e82610449565b5f6080838281528260208201528260408201528260608201520152565b9060405161527881610449565b6080600482948054845260ff60018201541660208501526002810154604085015260ff600382015416151560608501520154910152565b906152b9826150a6565b6152c660405191826104bb565b82815280926152d7601f19916150a6565b01905f5b8281106152e757505050565b6020906152f2615241565b828285010152016152db565b6040519060c082018281106001600160401b03821117610464576040528160a05f918281528260208201528260408201528260608201528260808201520152565b5f91818352602091600883526040928385209360068501549461271061536760055488614936565b0486039586116148fc576008015460ff919080841c8316156154135750838752601083528087208054889590949193929186915b8688106153b8575050505050505050610da992916119a391614936565b90919293949596998184526009835260016153f28c886153db898920928c611250565b90549060031b1c1660ff165f5260205260405f2090565b015481018091116148fc57615407909a6148ee565b9695949392919061539b565b925050610da99550611aa561542e61543d9496600196614936565b955f52600960205260405f2090565b015490614901565b9061544f826150a6565b61545c60405191826104bb565b828152809261546d601f19916150a6565b0190602036910137565b5f52600860205260016154a160405f2092600960205260405f209060ff165f5260205260405f2090565b01549081156154e9578282018092116148fc5760060154918083018093116148fc576127106154d260055485614936565b0483039283116148fc57610da9926119a391614936565b505090565b5f526008602052600161551860405f2092600960205260405f209060ff165f5260205260405f2090565b01549081158015615552575b61554a576006015490612710918281029281840414901517156148fc57610da991614901565b505061271090565b50600681015415615524565b905f52600860205260405f2090600882015460ff8160101c169081156155de575b506155d85760048201544210156155d8576001600160a01b0381165f9081526011602052604090206001015460081c60ff166155d15760019190910154610da991906001600160a01b03165b90614eba565b5050600190565b50505f90565b60ff915060181c165f61557f565b604051906155f9826104a0565b601982527f50726564696374696f6e20646f6573206e6f74206578697374000000000000006020830152565b60405190615632826104a0565b601b82527f50726564696374696f6e20616c7265616479207265736f6c76656400000000006020830152565b6040519061566b826104a0565b6014825273141c99591a58dd1a5bdb8818d85b98d95b1b195960621b6020830152565b6040519061569b826104a0565b601182527010995d1d1a5b99c81a185cc8195b991959607a1b6020830152565b604051906156c8826104a0565b601782527f43616e2061646420746f206578697374696e67206265740000000000000000006020830152565b60405190615701826104a0565b600b82526a109bdd0818d85b8818995d60aa1b6020830152565b60405190615728826104a0565b6016825275135d5cdd081a1bdb19081d1bdad95b881d1bc818995d60521b6020830152565b6040519061575a826104a0565b600782526610d85b8818995d60ca1b6020830152565b908015801561587c575b61587057615790815f52600860205260405f2090565b90600882015460ff8160101c166158625760181c60ff166158555760048201544210156158485761082c836108176157d0935f52600b60205260405f2090565b61583b576001600160a01b0382165f9081526011602052604090206157f7906001906107de565b61582e576001015461581591610ae9916001600160a01b03166155cb565b61582457600190610da961574d565b5f90610da961571b565b5050600190610da96156f4565b5050600190610da96156bb565b5050505f90610da961568e565b5050505f90610da961565e565b505050505f90610da9615625565b50505f90610da96155ec565b50600154811161577a565b60405190615894826104a0565b601882527f426f742063616e6e6f7420626574206f6e20697473656c6600000000000000006020830152565b604051906158cd826104a0565b601a82527f426f742063616e20626574206f6e2074686973206f7074696f6e0000000000006020830152565b9060018060a01b0382165f52601160205260ff600160405f20015460081c161561598e576159366003610b196001935f52600860205260405f2090565b61593f816105c3565b14615952575b5050600190610da96158c0565b60ff6159746001610b19839460018060a01b03165f52601160205260405f2090565b9216911614615984575f80615945565b5f90610da9615887565b5050505f9060405161599f816104a0565b6009815268139bdd081848189bdd60ba1b602082015290565b156159bf57565b60405162461bcd60e51b815260206004820152601060248201526f13995959081353d3881d1bc81cd9595960821b6044820152606490fd5b156159fe57565b60405162461bcd60e51b815260206004820152601060248201526f105b1c9958591e481c995cdbdb1d995960821b6044820152606490fd5b15615a3d57565b60405162461bcd60e51b815260206004820152600960248201526810d85b98d95b1b195960ba1b6044820152606490fd5b15615a7557565b60405162461bcd60e51b815260206004820152600e60248201526d24b73b30b634b21037b83a34b7b760911b6044820152606490fdfea26469706673582212200ee891915d2ae7925a412b5f93389b7022e3a1f069932a4f7cf861da6acd342e64736f6c63430008140033","linkReferences":{}},"methodIdentifiers":{"accumulatedFees()":"587f5ed7","botIdToWallet(string)":"6375693b","botWallets(address)":"f63821f6","calculatePotentialWinnings(uint256,uint8,uint256)":"41fdb485","canBet(address,uint256)":"ed80c9e2","canBetDetailed(address,uint256)":"af147a14","canBotBetOnOption(address,uint256,uint8)":"b4b6248f","cancelPrediction(uint256)":"d424e5a0","claimRefund(uint256)":"5b7baf64","claimWinnings(uint256)":"677bd9ff","createPrediction(address,string,uint8,uint256,string[])":"a240c27a","getActivePredictions(uint256,uint256)":"bd987726","getAllOdds(uint256)":"def656e6","getAllOptions(uint256)":"a07ba875","getBotInfo(address)":"fb4aaf0f","getBotOptionId(address)":"dc286e22","getClaimablePredictions(address)":"77ef93a4","getGlobalStats()":"6b4169c3","getLatestPredictions(uint256)":"20a0846a","getOdds(uint256,uint8)":"78dc90be","getOption(uint256,uint8)":"f032c5e0","getPrediction(uint256)":"fe83bece","getPredictionBettorCount(uint256)":"77fe420c","getPredictionBettors(uint256)":"ab56f43b","getPredictionFull(uint256)":"a2d52b8a","getRegisteredBots()":"6e377093","getTiedWinningOptions(uint256)":"8eb9c04e","getUserBet(address,uint256)":"de87b07d","getUserBets(address)":"2d56657d","getUserStats(address)":"4e43603a","hasBet(uint256,address)":"ae062acd","isBot(address)":"3bbac579","maxBetAmount()":"cab11d5d","minBetAmount()":"fa968eea","minTokenHolding()":"7ab6d036","options(uint256,uint8)":"e4c36801","oracles(address)":"addd5099","owner()":"8da5cb5b","placeBet(uint256,uint8)":"03edf914","platformFee()":"26232a2e","predictionBettors(uint256,uint256)":"8e7d7d8b","predictionCount()":"8e0596a2","predictionCreatedAt(uint256)":"ab82d8fd","predictions(uint256)":"004fbbb0","registerBot(address,string,uint8)":"68e5f40d","registeredBots(uint256)":"5e875f54","renounceOwnership()":"715018a6","resolvePrediction(uint256,uint8)":"6aaea6dc","resolvePrediction(uint256,uint8,bool,uint8[])":"aa078f6b","seedPrediction(uint256,uint8)":"892c7e36","setMaxBetAmount(uint256)":"7cfbc7a5","setMinBetAmount(uint256)":"6c188593","setMinTokenHolding(uint256)":"c4dd82f6","setOracle(address,bool)":"65360843","setPlatformFee(uint256)":"12e8e2c3","tiedWinningOptions(uint256,uint256)":"3ffb5f12","totalVolumeAllTime()":"bc5a8573","transferOwnership(address)":"f2fde38b","unregisterBot(address)":"ede47290","userBets(address,uint256)":"8068aa68","userPredictionIds(address,uint256)":"c4751796","withdrawFees()":"476343ee"},"id":29}